:020000040000fa
:080000000001040000000000f3
:020000040000fa
:100008004c0300004c0300004c0300004c030000ac
:100018004c0300004c0300004c0300004c0300009c
:100028004c0300004c0300004c0300004c0300008c
:100038004c0300004c03000034020000980200004a
:100048004c0300004c0300004c0300004c0300006c
:100058004c0300004c0300004c0300009a01000010
:100068004c0300004c0300004c0300004c0300004c
:100078004c0300004c0300004c0300004c0300003c
:10008800d00100004c0300004c0300004c030000aa
:100098004c0300004c0300004c0300004c0300001c
:1000a8004c0300004c0300004c0300004c0300000c
:1000b8004c0300004c0300004c0300004c030000fc
:1000c8004c0300004c0300004c0300004c030000ec
:1000d8004c0300004c0300004c0300004c030000dc
:1000e8004c0300004c0300004c0300004c030000cc
:0800f8004c0300004c03000062
:020000040000fa
:100108004c0300004c0300004c0300004c030000ab
:100118004c0300004c0300004c0300004c0300009b
:100128004c0300004c0300004c0300004c0300008b
:100138004c0300004c030000340200009802000049
:100148004c0300004c0300004c0300004c0300006b
:100158004c0300004c0300004c0300009a0100000f
:100168004c0300004c0300004c0300004c0300004b
:100178004c0300004c0300004c0300004c0300003b
:10018800d00100004c0300004c0300004c030000a9
:100198004c0300004c0300004c0300004c0300001b
:1001a8004c0300004c0300004c0300004c0300000b
:1001b8004c0300004c0300004c0300004c030000fb
:1001c8004c0300004c0300004c0300004c030000eb
:1001d8004c0300004c0300004c0300004c030000db
:1001e8004c0300004c0300004c0300004c030000cb
:0801f8004c0300004c03000061
:020000040000fa
:100200002f8f20000eff20000e018800000000004c
:10021000000020000000e000020032000001200089
:10022000200288000c000700e0a720000100200049
:1002300011000700000020000000e0000200320072
:100240000000020000000000ac02020000000000fc
:100250000040da000000fe004440a900a001200098
:100260000000e0000300320000002000a001880030
:100270004440a8000000060091018800800078003a
:100280000000eb0015003700e280400032a0b4000f
:100290009101ba00e280400032a0b4009102ba009d
:1002a000e280400032a0b4000002eb00472bde00e9
:1002b000f507b200602ce10004003a000059eb00a1
:1002c0008301e900fdff3e00040037006128e100e2
:1002d000010032000082eb00040007001101ba00a7
:1002e0000200e000e8ff3a00000006003159ba00c1
:1002f0008301e9000c0032002159ba008301e900b2
:10030000080032000400e00003003a00e2804000f0
:1003100032a0b400f5ff370011d9ba008301e9001b
:10032000faff3a008100e800e180400032a0b4000a
:1003300000000600801f7800849fbe00861f7800a2
:100340000000fa00741680004e22de006142620056
:100350000482fb00244088001417800004427800c7
:100360006142620004c2ea00614262000482fb0052
:100370006102620016178000e5ff2f00850263000e
:10038000050272001417880085e0a9000080fa00b9
:100390004f0378004f02be004f0078000040060077
:1003a000801f7800841f78000000fa008700a900f1
:1003b000e4108000044278000400780008e8b700e8
:1003c0000080fa004f0278004f00780000400600dd
:1003d0000400fa00100798000a00370034332700a1
:1003e000040f7800010037001e0fe9001e0278009c
:1003f000e00f5200fcff3a001e0290000402e900e8
:10040000140798001e029000e00f5200f3ff3a001c
:100410000080fa00000006000000fa0017e2a900c0
:1004200017a2a90016e2a90016c2a90016a2a900e7
:10043000b41080000410a1000420a100b4108800b2
:100440001602a900f4002000f41088008700a9001b
:100450008f00a80017e2a80024002000844788002d
:100460000080fa0000000600801f7800849fbe0014
:10047000861f78003400f80000002000a0018800ea
:100480000000fa0084c0a90014178000044278001c
:100490006142620004c2ea00614262000482fb0021
:1004a0006102620016178000e5ff2f0085026300dd
:1004b0000502720014178800141780000402d1008e
:1004c0006142620004c2ea00614262000482fb00f1
:1004d000610262000402420016178000d5ff2f005f
:1004e0008502630005027200141788000440800032
:1004f0000402e8000440880004408000ea0f520033
:1005000005003a0011e1a900140020001440880001
:100510000002eb00044088000080fa003400f9007b
:100520004f0378004f02be004f00780000400600e5
:10053000801f78003400f80000002000a00188002f
:100540000000fa0084e0a9000080fa003400f900fd
:100550004f007800004006000000fa00aeff0700e0
:1005600044a62800841f78007d0007008f87e900db
:10057000de02a900de22a90013e1a9000002eb00bf
:10058000540888000082eb00740888001221a9003a
:10059000940880000440a1000450a0009408880042
:1005a00084e0a9008ce0a90013e1a800340a8000cf
:1005b0000400a1000410a0000420a100340a880057
:1005c00046e1a9008480a9008c80a80011e1a9005f
:1005d0000002eb0034088800142e20006408880014
:1005e0001021a900840880000440a1000450a1004b
:1005f0008408880084c0a9008cc0a80011e1a9006b
:10060000640880000402d100040c8800240c8000df
:100610000400a1000410a0000420a000240c880005
:100620000002eb00140c88008461a90011e1a8000d
:10063000640880000402d100740c8800840c8000df
:100640000400a0000410a1000420a000840c880075
:100650000002eb00640c88009061a900e202a8008f
:10066000e222a900010037000000000014408000d1
:10067000e10f5200fcff3a002003200054ff070066
:100680000002eb00144088000002eb0054088800d0
:1006900011e1a800f5ff37000040da000000fe007d
:1006a0000a00fa00e20f500022003e00844780005a
:1006b000e10f520006003200e7212000a6212000b1
:1006c0008421200065212000e08f530004003a00bf
:1006d0004721200006212000e4202000c520200022
:1006e000000028001500600003003a00800b78002d
:1006f00007002800958a730005402000948262005c
:1007000001003a0014a0a000820278000600370021
:10071000940378000710b200fdff3200b103fb0024
:10072000070b78008502e900e08f5200f8ff3a00dd
:100730000800370034002000c0bf9f00e2bf9f00c8
:10074000b4bf9f00d1bf9f006a80570046030700d7
:100750006fb99700020078000080fa0000000600e0
:10076000008d20000000fa0068815700cfb8970084
:10077000020007000080fa00000006006f03b000ce
:10078000889fbe008a9fbe008c9fbe000006780036
:100790008e1f78008006eb00d1af9f0082b79f00cc
:1007a0009f023700dfa8970054c2b3008100e80021
:1007b000d1af9f00844f500006003a00010278003c
:1007c0008042eb0002c3b30001c2b300b0c2b30069
:1007d0000e0037003c0290000404b2000400320016
:1007e0001c027800004a7800040ee800050037007b
:1007f0000000fb008c00780095020700e10f40002c
:10080000870232008d06e800850237000403780075
:10081000d3c2b300b443780083cf53000900320041
:1008200005003c0081cf53000800320080cf530008
:100830000c003a000700370082cf530009003a004d
:10084000060037000534a000f0ff37000504a000c3
:10085000eeff37000514a000ecff37000524a000d0
:10086000eaff370062826200010032000504a10045
:1008700068826200010032000524a1000702fb002b
:100880000403b100e90f52000c003e00860378001b
:100890000002eb006a20b9003702fb000403b1003c
:1008a00007037800000242001700fb000003b100bc
:1008b000e90f5000f7ff3600080037000002eb0098
:1008c000a0c2b30080cf530004003a008fb397005a
:1008d0000603e8004702780087b79f000007eb0097
:1008e000e7c2b30096cf130009003a00e4c35300f7
:1008f000d6cf130002003200860378000a003700ca
:100900000fb497000603e8004807780088b79f00f7
:100910008603780031c6b300c0c6b30008003700b4
:100920006a71b90002074000070378003700fb0036
:100930000003b100e90f5000f9ff3600f4ff370063
:100940000701780039c7b30032437800820378008a
:10095000894f53001a00320008003c00814f5300b9
:1009600088003200804f53000c003200d2af9f004d
:10097000e04f53002f023200a2003700d2af9f0099
:1009800057c7b300874f5300a5003200e3c34300ad
:10099000874f53009b003a000600370070816200c9
:1009a00006c1b300010032000043eb0086c27200b2
:1009b000e3ff3700e67f9f000574a0009b0037002f
:1009c0008fb59700d2af9f003ac7b300ea7f9f0070
:1009d0004b0378008bb79f0096b79f00e00f530042
:1009e00002003a00c180200091b79f009fb397009a
:1009f0000003eb00010037000603e80067407b00be
:100a0000e04f5000fcff3a00a6b79f00e00f5700f0
:100a1000050032002fb19700820f5700020031000d
:100a20008e017800a3b79f002fb397000004eb005e
:100a3000860f52000100360006045200e88462006e
:100a40000ec2b3000f003200290037003c029000b4
:100a50000404b200040032001c0278000e4a780040
:100a6000040ee800050037008c007800000220002a
:100a7000f7010700e10f4000010032008d06e80099
:100a80000804e900e00f5400f0ff3a000084eb0096
:100a900017003700bc0290000504b20009003200c4
:100aa000880278009c03780035437800864b7800f4
:100ab00005047800070ee800e04f53000a003a00f2
:100ac00011003700880278008c0078003500fb00a8
:100ad00084bf9f0005047800dd0107000fba97006e
:100ae000e10f4000080032008d06e80006003700e4
:100af00008077800090278001fb49700afb4970088
:100b00003fb59700cfb59700890278008504e900ca
:100b1000e08f5200dfff3a0098b79f00a9b79f000f
:100b2000bab79f00cbb79f000e047800840478000a
:100b3000e08f5400ba01320009c2b3000e00370042
:100b40003c0290000404b200040032001c02780051
:100b5000094a7800040ee800050037008c00780090
:100b600000022000ba010700e10f4000010032003e
:100b70008d06e8000804e900e00f5400f0ff3a0099
:100b8000a70137008fb09700d2af9f00f0836200bb
:100b90004104780081b79f00cfc4de0009057800ca
:100ba0008a0578000800be000a01be004800de0089
:100bb000480bdd0000007300e07f9f00e08f5300d2
:100bc00009003200e04f500007003200e14f4000c2
:100bd0000500320027002000f07f9f0088c79f009b
:100be000a7b79f0003003700f87f9f001800200080
:100bf000a8b79f00f9fb2f008984470099b79f0091
:100c000082ff3700eafb2f001b0020000a85470007
:100c1000e67f9f009ab79f00abb79f007bff37002e
:100c2000e67f9f0006ccb30086c272008582fb007f
:100c300070806200f5af9f0090a79f001200320005
:100c40008fb297000003eb004501be008003eb006c
:100c500082af9f0093af9f00a6af9f00b7af9f00ea
:100c600085b79f000fac97009fac97002fad970002
:100c7000bfad970098b79f00a9b79f00bab79f0074
:100c8000cbb79f000b0037008fb49700c9027800e4
:100c90000500780001002000020020000300200071
:100ca00089b79f0090b79f00a1b79f00b2b79f0080
:100cb000c3b79f00e00f57000b003a001e00200052
:100cc0001fb49700afb497003fb59700cfb597001a
:100cd000e00f5400e08f5c00e00f5d00e08f5d00ee
:100ce000010032000007eb00ffac97000508200070
:100cf000090cb200c9af9f00858f54001400320068
:100d0000050c2000858f540029003a00c68220007f
:100d100015c0b3003600be003601be001fb49700f8
:100d2000afb497003fb59700cfb597000040e10002
:100d300001c8e10002d0e10003d8e1001b00390046
:100d40008542e800f4cf5200f2ff3a001700370066
:100d500015c0b30000012000010020006011b800a0
:100d60001fb49700afb497003fb59700cfb5970079
:100d70000040e10001c8e10002d0e10003d8e10039
:100d80000a003900490020000000d0008180d20014
:100d90000281d2008381d2008904e900faff3a007f
:100da0008542e800f0cf5200edff3a00e57f9f005a
:100db0006f7d97008a02fb008e8f520002003d007b
:100dc000ee7f9f0003003700850f570001003d00b4
:100dd00005077800e00f5200040032007fa897005a
:100de000e3026000010032000402e900ef7897009e
:100df0000001eb008102fb00e2af9f00850f520073
:100e00000200340085025200e5af9f00ffa9970061
:100e1000648261003b003200e28261006182610015
:100e2000e08f520011003200bc0290000504b200b5
:100e3000080032009c027800b6c2b300e00f5200f6
:100e40000100320006c3e800864a7800050ee8007b
:100e500015003700b0022000e00f52000100320000
:100e60000080e8008c0078000c003700e00f520092
:100e70000e0032003c0290000404b2000500320073
:100e80001c02780005c2b300054a7800040ee80091
:100e9000050037008c00780000022000ec000700fd
:100ea000e10f4000010032008d06e8006faa9700b4
:100eb000e00f52005100320008c3b30084047800f0
:100ec0003c0290000404b200040032001c027800ce
:100ed000084a7800040ee800050037008c0078000e
:100ee00000032000da000700e10f4000010032009b
:100ef0008d06e8008904e900f1ff3a00e9af9f00a0
:100f00003e003700efaa9700e08f52001500320034
:100f10007fab97006802630012003a0008c2b3007a
:100f2000850478003c0290000404b2000400320002
:100f30001c027800084a7800040ee800050037001b
:100f40008c00780000022000c1000700e10f400083
:100f5000010032008d06e8008904e900f1ff3a0043
:100f6000e9af9f00ffab9700e282630061826300fc
:100f7000e08f520011003200bc0290000504b20064
:100f8000080032009c027800b6c2b300e00f5200a5
:100f90000100320006c3e800864a7800050ee8002a
:100fa00015003700b0022000e00f520001003200af
:100fb0000080e8008c0078000c003700e00f520041
:100fc0000e0032003c0290000404b2000500320022
:100fd0001c02780005c2b300054a7800040ee80040
:100fe000050037008c007800000220009800070000
:100ff000e10f4000010032008d06e8000e02e9001a
:1010000046822000c222dd00bda79f004322dd00f2
:10101000a5a79f0006024200840678001fb2970031
:10102000afb297003fb39700cfb397005e00370091
:101030000e07e9004fac970009082000890f540003
:101040002c003200000c2000800f540037003a00c2
:101050001fa59700e00f55001b0032000400be00e2
:1010600094b79f00a5b79f003d04be002d05be00ac
:101070000801be00fe0007000801be00e07f9f00df
:101080000000fb00cf80de00090107000002eb003a
:101090001fb19700afb19700f4a79f000001510066
:1010a00081815900c2a79f00d3a79f008001eb0058
:1010b000e3a79f004fa29700dfa297006fa39700be
:1010c000ffa39700070037001d01780011000900f9
:1010d0000282d800a2002000110009000280d8007e
:1010e000e17f9f006f7c97000843b000e87f9f007e
:1010f0000e0037000400be000601be00afa497003a
:101100003a8120008904e900050033008301d10001
:101110000281d3008180d3000080d300f9ff370023
:101120006f0060006a407800e07f9f003c00900004
:101130000004b200070032009c0078006f7897002e
:1011400080487800010ee800e04f50000f003a00a0
:1011500011003700ef7d970084bf9f00d5b79f0037
:10116000e6b79f00f7b79f000b00fb008c007800ec
:10117000370007000fba9700dfb297006fb39700f0
:10118000ffb39700e10f4000030032003fa097003b
:101190000000e800b0a79f00afa09700e4805000d7
:1011a000a1a79f00e8865600e00f5700a0ff3a0075
:1011b00094b79f00a5b79f00b6b79f00c7b79f0021
:1011c000ffac9700bfa6970068826400140032004d
:1011d0006fad9700e00f55001100340008c2b30056
:1011e0008a0478003c0290000404b200040032003b
:1011f0001c027800084a7800040ee8000500370059
:101200008c0078000002200011000700e10f400070
:10121000010032008d06e8008904e900f1ff3a0080
:10122000dfad97001b407800e07f9f00e04f50004b
:101230005cfd3a004f0778000d0078004f06be00b5
:101240004f05be004f04be006f03b1000000060052
:10125000889fbe00010478008084eb003802900073
:10126000e20262003b003200040378009802900022
:101270000620b20002003a00e08f520035003a002a
:101280000490a0008004780034049800f90fb200a4
:10129000e08f520002003a00a8029000050c78008e
:1012a000ea8f540005003a000408b20003003a0037
:1012b00088007800d0002000e5ff070018029000a9
:1012c000d8029000850f52000b0032000402e800a3
:1012d00015c0b3001404980018027800094a780079
:1012e000040ce800a48e2000054a7800ea8f540020
:1012f00018003a000500370009407800880078009f
:1013000017000700800478001200370038029000b0
:101310000410b2000f00320018019000a8009000e5
:1013200048009000defc070018029000840f500077
:1013300004003200380290000403b3003404980023
:101340008084eb000002eb00140498002802900057
:10135000040c7800090078004f04be00000006006d
:101360000200fa00889fbe0001047800a0ff9f00e1
:1013700038029000840278000504b20002003200b6
:101380000000fb0035003700e202620005003a0071
:101390000403b30015049800340498000080eb00a7
:1013a0002e003700d8049000e08f540006003a0069
:1013b00012002000e680570048009000b8fc0700ab
:1013c0001904980023003700a8029000e08f520013
:1013d00008003a00d58e20000430a00025049800b3
:1013e000050c78003404980025002000550498006e
:1013f0001504980018019000a80090004800900083
:10140000a7fc0700280290008082eb0015049800da
:10141000affa9700054a7800040ce8002ffa97000d
:10142000ea4f52000b003a00380290000410b2005c
:101430000800320018019000a800900048009000b9
:1014400097fc07000002eb00a8029000140498002b
:10145000050c78002ffa97000400fb004f04be0033
:101460000080fa000000060000c0da00000006005c
:101470006022b800060220000000d0008180d20067
:101480000482d2008582d2000000a0000202520035
:1014900083825a00030031000202420083824a0024
:1014a0000000a1000603e900f3ff3a000000060077
:1014b000020ab900001bb9000200b8008100420016
:0814c00081004300000006005a
:020000040000fa
:1014c8005365000072690000616c00002070000024
:1014d8006f720000742000007361000079730000cf
:1014e8003a200000486500006c6c00006f0a00009c
:0414f8000d000000e3
:020000040000fa
:1014fc00000800000a000000000000000a080000bc
:10150c00020000000200000064190000f008000056
:10151c00020000000200000001000000c4080000ee
:10152c002600000002000000eb08000000eb0800a1
:10153c000900000000020000ed08000000ed0800aa
:10154c000e0201000000000000000000000000007e
:10155c000602020000000000c4080000ea080000b7
:10156c0006000000000000000c080000b80000009d
:10157c0002000000286e75006c6c290000303100f0
:10158c003233340035363700383961006263640019
:10159c0065660000010000000000000000000a0069
:1015ac0000000000000000000064000000000000cb
:1015bc0000000000e8030000000000000000100024
:1015cc00270000000000000000a0860001000000c1
:1015dc000000000040420f000000000000008000ee
:1015ec0096980000000000000000e100f5050000e6
:1015fc000000000000ca9a003b0000000000000040
:10160c00e40b5400020000000000e80076481700cc
:10161c00000000000010a500d4e80000000000004d
:10162c00a0724e0018090000000040007a10f30070
:10163c005a0000000080c600a47e8d00030000004c
:10164c0000c16f00f2862300000000008a5d780064
:10165c004563010000006400a7b3b600e00d000074
:10166c0000e889000423c7008a0000000000000085
:020000040000fa
:0200000401f009
:04000000f7bf000046
:020000040000fa
:0200000401f009
:04000400ff7f00007a
:00000001FF
